:020000040800F2
:1000000000080020890100083F2100088D1C00081D
:100010003D210008D7020008412B00080000000025
:100020000000000000000000000000001D22000889
:10003000E10400080000000041210008C922000876
:10004000A3010008A3010008A3010008A301000800
:10005000A3010008A3010008A3010008A3010008F0
:10006000A3010008A3010008A3010008A3010008E0
:10007000A3010008A3010008A3010008A3010008D0
:10008000A3010008A3010008A3010008A3010008C0
:10009000A3010008A3010008A3010008A3010008B0
:1000A000A3010008A3010008A3010008A3010008A0
:1000B000A3010008A3010008A3010008A301000890
:1000C000A3010008A3010008A3010008A301000880
:1000D000A3010008352B0008A3010008A3010008B4
:1000E000A3010008A3010008A301000800F002F822
:1000F00000F03AF80AA090E8000C82448344AAF188
:100100000107DA4501D100F02FF8AFF2090EBAE885
:100110000F0013F0010F18BFFB1A43F0010318473B
:10012000B02B0000D02B0000103A24BF78C878C153
:10013000FAD8520724BF30C830C144BF04680C60ED
:10014000704700000023002400250026103A28BF35
:1001500078C1FBD8520728BF30C148BF0B60704739
:100160001FB51FBD10B510BD00F07CF81146FFF79C
:10017000F7FF02F035FD00F09AF803B4FFF7F2FF45
:1001800003BC00F0A1F80000094880470948004777
:10019000FEE7FEE7FEE7FEE7FEE7FEE7FEE7FEE737
:1001A000FEE7FEE704480549054A064B7047000094
:1001B0002B230008ED0000080002002000080020AA
:1001C000000400200004002040EA0103024630B58C
:1001D0009B0710D14FF0013400E008C208C91D1B75
:1001E0009D4315EAC41FF8D013F0FF0102F8011B6C
:1001F0000DD01B0AF8E711F8013B002B02F8013B78
:1002000005D011F8013B002B02F8013BF3D130BDC2
:100210004FF0000200B5134694469646203922BF9F
:10022000A0E80C50A0E80C50B1F12001BFF4F7AFEA
:10023000090728BFA0E80C5048BF0CC05DF804EBCC
:10024000890028BF40F8042B08BF704748BF20F83A
:10025000022B11F0804F18BF00F8012B7047704738
:1002600070477047754600F02BF8AE4605006946AA
:10027000534620F00700854618B020B5FFF792FFDF
:10028000BDE820404FF000064FF000074FF0000897
:100290004FF0000B21F00701AC46ACE8C009ACE818
:1002A000C009ACE8C009ACE8C0098D46704710B57C
:1002B0000446AFF300802046BDE81040FFF75DBF65
:1002C000004870479C01002001491820ABBEFEE7A2
:1002D000260002007047FEE710B50022012100F061
:1002E00087F8BDE81040052000F06AB910B5044653
:1002F0000298216022716371A0712820A0720620EB
:10030000E0710C202072142060720820E07232200C
:1003100000F056F900223321204600F069F800224F
:100320003321204600F064F8052000F049F900224E
:100330003221204600F05CF8052000F041F900224F
:100340002021204600F054F8052000F039F9E17929
:100350000022204600F04CF8217A0022204600F0CE
:1003600047F8617A0022204600F042F8A17A002284
:10037000204600F03DF800220121204600F038F828
:1003800020460022BDE81040022100F031B830B410
:10039000447900238C4201D8641EE1B284799442EE
:1003A00001D8641EE2B232B1012A06D0022A06D078
:1003B000032A06D007E00B4605E0403102E0143185
:1003C00000E05431CBB230BC43F08001002200F099
:1003D0000FB8012200F00CB870B50C46054603E0DA
:1003E0002846641CFFF7F5FF21780029F8D170BD7D
:1003F0007CB506460807040EF07A01F0F00518B146
:1004000045F0080544F00804012A01D02AB108E0AB
:1004100045F0010544F0010403E025F0010524F056
:10042000010445F004008DF80400012000F0C8F834
:100430008DF8055044F004008DF80600012000F00E
:10044000BFF84FF47A708DF807400090317904239B
:1004500001AA306800F092FA7CBD000070B51D4919
:10046000262002F03DF9002833D11A4802F086F820
:1004700000282ED10122184DD4032146284600F031
:10048000AEF94FF4967000F09BF800222146284602
:1004900000F0A5F9642000F093F80E4901204A1FEE
:1004A0000B5C1418401CC0B204F8013C0528F7D3BB
:1004B00008480A4A0421401F02F074FB074901F56D
:1004C000B470FFF781FE02F03DFBBDE8704002F022
:1004D000B1B870BD09000020000C014028000020C8
:1004E000704710B590F821100022022905D0042190
:1004F000816380F82020012010BD01680B6823F083
:100500000E030B6001680B6823F001030B6090F889
:100510004030C46B012101FA03F3636080F82110BD
:1005200080F82020104610BD10B590F8211000244E
:10053000022903D00421816301243DE001680A6897
:1005400022F00E020A6001680A6822F001020A60C5
:100550001A4A0168914201D1012121E0174A14325F
:10056000914201D110211BE0144A2832914201D15D
:10057000891515E0114A3C32914201D189140FE0EE
:100580000E4A5032914202D14FF4803108E00B4ABA
:100590006432914202D14FF4801101E04FF080713A
:1005A000064A083A5160012180F82110002180F8A4
:1005B0002010416B01B18847204610BD0800024061
:1005C00070B5044600F010F90546601C02D00448DE
:1005D0000078044400F008F9401BA042FAD370BD33
:1005E000180000202DE9F84FDFF8B8910024A9F198
:1005F000040B23460F2709F1040AABF1040EC9E0EE
:100600000125A5402A40AA427DD1674ED1F804C0F9
:10061000ACEB0608B44532D014DCBCF1030F3AD081
:1006200009DCBCF1000F2AD0BCF1010F1CD0BCF1D9
:10063000020F31D11DE0BCF1110F17D0BCF1120F28
:100640002AD119E0B8F5881F19D006DCB8F5803F2B
:1006500015D0B8F5801F1FD111E0B8F5001F0ED0DE
:10066000B8F5041F18D10AE0CB6815E0CB681B1D54
:1006700012E0CB6808330FE0CB680C330CE08B68DA
:100680002BB1012B4FF0080303D0456104E0042394
:1006900002E0056100E00023FF2A01D8064601E0E0
:1006A00000F104064FEA840501D9A5F12005D6F82A
:1006B000008007FA05FC28EA0C0803FA05F548EA69
:1006C0000508C6F800804D68ED0062D5374DAE696B
:1006D00046F00106AE61AD6924F0030605F00105A0
:1006E0000095334D06EB050CDCF80850A607360FD5
:1006F00007FA06F825EA0805DFF8B880404503D177
:100700004FF0000817E044E0DFF8AC80404502D12C
:100710004FF001080FE0DFF8A480404502D14FF010
:10072000020808E0DFF89880404502D14FF0030846
:1007300001E04FF0040808FA06F848EA0508CCF88A
:1007400008804D68D9F80060ED024D4601D516438A
:1007500000E096432E604D68DAF80060AD02554621
:1007600001D5164300E096432E604D68DBF800602B
:10077000AD035D4601D5164300E096432E604D68FB
:10078000DEF80060ED03754601D5164300E09643A0
:100790002E60641C0D682A46E5407FF431AFBDE849
:1007A000F88F000008040140000011100010024002
:1007B0000000014000080140000C01400010014011
:1007C000001401408068084000D001207047C268D2
:1007D00021EA02030A4043EA0241016170470AB17B
:1007E000016170470904FBE7014880687047000019
:1007F0001800002070B5040025D094F83D000025B5
:1008000020B984F83C50204600F04EF9242084F8AA
:100810003D002068016821F0010101602068016845
:1008200041F4004101602068016821F40041016049
:1008300000F096FA4D4A6168914201D84C4900E0B7
:100840004C49884201D2012070BD4B492368B0FB5E
:10085000F1F15E6826F03F060E435E6063689342E6
:1008600006D94FF4967359434FF47A73B1FBF3F101
:100870002368491C1E6A26F03F06314319626168ED
:10088000914210D84900401EB0FBF1F2521CC2F355
:100890000B02042A01D2042022E0B0FBF1F0401C3C
:1008A000C0F30B001CE0A268F2B301EBC10303EB41
:1008B0000116431EB3FBF6F35B1C43F480431B0598
:1008C00049D092B301EBC10202EB0111401EB0FB13
:1008D000F1F0401CC0F30B0040F4804040F40040B5
:1008E0002168CA694CF6FF739A431043C861D4E982
:1008F000071001432068026822F0C0021143016022
:10090000D4E9030101432068826848F2FF339A4327
:1009100011438160D4E9050108432168CA6822F0C7
:10092000FF021043C86001E00EE016E02068016895
:1009300041F0010101602564202084F83D00256319
:1009400084F83E50002070BD01EB4106431EB3FB0E
:10095000F6F35B1CB3E70120C2E701EB4101401E47
:10096000B0FBF1F0401CC0F30B00B7E7A08601001C
:1009700080841E0000093D0040420F002DE9F84F21
:100980001F4690468A460446DDF82890FFF72CFF64
:10099000054694F83D0020287FD1192301224049C3
:1009A0002046009501F004FA002876D194F83C0026
:1009B000012872D0012084F83C0020680168C90732
:1009C00003D1016841F0010101602068016821F450
:1009D00000610160212084F83D00102084F83E0071
:1009E00000262664C4F824806785608D20852D4804
:1009F000E0622B464A465146204601F05FF990B925
:100A0000206841698069009036E02A4649462046C0
:100A100001F074FA50B1206C042804D120680168F8
:100A200041F4007101600120BDE8F88F606A21681F
:100A300000780861606A401C6062618D491E6185B2
:100A4000218D491E89B2218522685369DB435B07EA
:100A50000BD451B100781061606A401C6062608DF7
:100A6000401E6085208D401E20852A46494620462E
:100A700001F072F90028CED1208D0028C5D154F89C
:100A80003D0B016841F400710160202004F81E094B
:100A9000E67766770020C7E7FFE70220C4E700009B
:100AA000020010000000FFFF10B586B00021009189
:100AB00001910291039100680F4988421AD10F4CAD
:100AC000A06940F00800A061A069694600F0080034
:100AD0000490C02000901220019003200390084849
:100AE000FFF780FDE06940F40010E061E06900F488
:100AF0000010049006B010BD0054004000100240E9
:100B0000000C0140024881680278114481607047FE
:100B100018000020074810B5016841F0100101607D
:100B2000032000F075F80F2000F006F800F024F81C
:100B3000002010BD0020024070B50D4D04464FF45A
:100B40007A712878B1FBF0F00A490968B1FBF0F03E
:100B500000F065FC48B9102C07D200222146501E37
:100B600000F036F800206C6070BD012070BD000000
:100B700018000020240000200C4808B5816941F0CD
:100B800001018161816901F001010091C16941F0B8
:100B90008051C161C06900F08050009004484168F4
:100BA00021F0E06141F00071416008BD0010024099
:100BB00000000140002809DB00F01F0201219140E4
:100BC0004009800000F1E020C0F8001170470000EB
:100BD000F0B40E4B1B680C46C3F30223C3F10705A8
:100BE000042D00D90425191D072901D2002300E096
:100BF000DB1E012606FA05F1491E214099409E4060
:100C0000761E16403143F0BC01F0BCBF0CED00E095
:100C1000064900F0070208684FF6FF03184040EA53
:100C20000220034A10430860704700000CED00E00A
:100C30000000FA052DE9F0470F46050061D0434E4C
:100C4000306800F00700B84209D2306820F0070091
:100C500038433060306800F00700B84251D128684E
:100C60003B4C810712D5400703D5606840F4E06033
:100C700060602878000703D5606840F460506060C9
:100C80006068A96820F0F000084360602878C00719
:100C900028D06868012810D02168022810D0890760
:100CA00000292EDA616821F0030101436160FFF73A
:100CB0009BFD804641F288390DE021688903EFE70A
:100CC0008901EDE7FFF790FDA0EB0801494502D946
:100CD0000320BDE8F0876068696800F00C00B0EBA5
:100CE000810FEFD1306800F00700B8420BD93068AF
:100CF00020F0070038433060306800F00700B84249
:100D000001D00120E5E72878400705D56068E9684B
:100D100020F4E060084360602878000706D560682A
:100D2000296920F4605040EAC100606000F038F8A2
:100D30006168084AC1F30311515CC8400649086064
:100D400006480068FFF7F8FE0020C2E700200240D6
:100D500000100240B62C0008240000201C000020D7
:100D60000448054900684968044AC1F30221515CFE
:100D7000C84070472400002000100240C62C000824
:100D80000448054900684968044AC1F3C221515C1E
:100D9000C84070472400002000100240C62C000804
:100DA0000E4A51680E4801F00C03042B11D0082B99
:100DB0000FD10C48C1F38343C903C05C0AD5516805
:100DC000084AC1F34041921E515C054A5043B0FBB2
:100DD000F1F070470449484370470000001002409A
:100DE00000127A00A62C000800093D002DE9F84FFA
:100DF000040070D02078C04DC00749D06868C0F3A7
:100E00008100012807D06868C0F38100022809D159
:100E10006868C00306D52868800339D56068002853
:100E2000E7D035E06068B0F5803F0BD010B1B0F589
:100E3000A02F11D0286820F480302860286820F482
:100E4000802002E0286840F480302860606890B11B
:100E5000FFF7CAFC06460AE0286840F480202860B4
:100E6000F0E700BFFFF7C0FC801B642873D8286838
:100E70008003F7D50CE0FFF7B7FC064605E000BF9E
:100E8000FFF7B2FC801B6428F0D828688003F7D4F1
:100E900020789A4E80074FF001094FF0000839D5AD
:100EA000686810F00C0F07D06868C0F38100022852
:100EB00009D16868C00306D42868800714D5206962
:100EC000012808D110E02069B0B1C6F80090FFF702
:100ED0008BFC074605E00AE1FFF786FCC01B0228F1
:100EE000C4D828688007F7D52868616920F0F80021
:100EF00040EAC10028600DE0C6F80080FFF774FCEE
:100F0000074604E0FFF770FCC01B022823D82868BE
:100F10008007F7D4207800072CD57948A169D9B18A
:100F2000C0F80090FFF760FC074604E0FFF75CFCA8
:100F3000C01B02280FD8686A8007F7D571484FF4A4
:100F4000FA510068B0FBF1F0009000BF0098411E1C
:100F50000091FAD20EE080E0C0F80080FFF744FC78
:100F6000074604E0FFF740FCC01B022875D8686AFA
:100F70008007F7D42078400760D5E8690027C000D3
:100F800008D4E86940F08050E861E869012700F082
:100F9000805000905C480168C90513D401688346FD
:100FA00041F480710160FFF71FFC824606E000BF3C
:100FB000FFF71AFCA0EB0A0064284ED8DBF800000B
:100FC000C005F5D5E06801280AD008B1052813D07E
:100FD000286A20F001002862286A20F0040002E05C
:100FE000286A40F001002862E06841F2883B98B12D
:100FF000FFF7FAFB82460BE0286A40F00400286203
:10100000EEE700BFFFF7F0FBA0EB0A0159455AD805
:10101000286A8007F6D50CE0FFF7E6FB824605E07C
:10102000FFF7E2FBA0EB0A0159454CD8286A80077C
:10103000F6D41FB1E86920F08050E861E06988B318
:101040006968C1F38101022944D00228C6F8608092
:1010500004D0FFF7C9FB044638E034E0FFF7C4FBD7
:10106000074604E0FFF7C0FBC01B02282BD8286806
:101070008001F7D4206AB0F5803F05D16868A16887
:1010800020F4003008436860D4E908010843696827
:1010900021F4741108436860C6F86090FFF7A4FB60
:1010A000044606E025E000BFFFF79EFB001B022878
:1010B00009D828688001F7D51BE000BFFFF794FB33
:1010C000001B022802D90320BDE8F88F28688001A0
:1010D000F4D40EE00128F7D06868226A00F4803169
:1010E000914204D1616A00F47010884201D001205D
:1010F000EAE70020E8E7000000100240000042425A
:1011000080044242240000200070004070B50400BA
:1011100009D0606A002540B125616561A56294F837
:10112000510040B10CE0012070BD6068B0F5827FD5
:10113000F4D0E561F2E784F85050204600F040F822
:10114000022084F851002068016821F0400101600C
:10115000A088218900F4827001F404410843A18928
:1011600001F400610843217C01F002010843217D64
:1011700001F001010843218B01F400710843217F34
:1011800001F03801084394F8201001F08001084371
:10119000218D01F40051084321680860A0690421F1
:1011A00001EA1040216848602068C16921F40061AB
:1011B000C1616565012084F85100002070BD000008
:1011C00030B585B000240094019402940394006823
:1011D0001449884223D11448816941F480518161C6
:1011E000816901F480510491816941F004018161B8
:1011F00080690E4D00F004000490A02000900220B1
:1012000001900320039069462846FFF7EBF9402040
:10121000CDE90004694628460294FFF7E3F905B0DA
:1012200030BD0000003001400010024000080140C5
:101230002DE9FF4F81B0044690F8500000260E9F24
:101240001D4693464FF0010901280FD04FF0010AC7
:1012500084F850A0FFF7C8FA804694F851006168FE
:1012600001280DD0B1F5827F08D103E0022005B03E
:10127000BDE8F08FA16809B9042801D00226C9E0B1
:101280000298002865D0BBF1000FFBD0002DF9D0EB
:1012900094F85100042802D0052084F85100002061
:1012A0006065C4F838B0E587A58702992163E586B3
:1012B000A5862064606420680168490603D401683B
:1012C00041F040010160E068B0F5006F606803D054
:1012D000F0B3012D47D081E008B1012D3CD1206B46
:1012E00021680088C860206B801C2063E08E401E4F
:1012F000E08631E02068816889070FD5E18E69B109
:10130000B9F1010F0AD1216B0988C160206B801CE3
:101310002063E08E401EE0864FF00009206881685F
:10132000C9070CD0E18F51B1C068A16B0880A06BD8
:10133000801CA063E08F401EE0874FF00109FFF79B
:1013400053FAA0EB0800B84206D3781C04D001E0A1
:1013500009E05BE003265BE0E08E0028CAD1E08F65
:101360000028C7D140E0206B216800780873206B0B
:10137000401C2063E08E401EE0862FE020688168DC
:1013800089070FD5E18E69B1B9F1010F0AD1216B3F
:1013900009780173206B401C2063E08E401EE086BC
:1013A0004FF0000920688168C9070CD0E18F51B166
:1013B000C068A16B0870A06B401CA063E08F401E4A
:1013C000E0874FF00109FFF70FFAA0EB0800B842E1
:1013D00002D3781C02D0BAE7002FB8D0E08E0028E4
:1013E000CCD1E08F0028C9D142463946204600F0D2
:1013F000A8FE18B10126202060650BE0A06818B98E
:101400002068C16880680090606D08B1012601E025
:1014100084F851A0002084F85000304627E710B52A
:10142000401EB0F1807F01D3012010BD4FF0E024B9
:1014300060610F21601701F0A5FB0020A06107206B
:101440002061002010BD000070B590F83C20012AFA
:1014500026D0012480F83C40022280F83D20036819
:101460005A689D6822F070060A6832435A600D4B34
:1014700002689A4208D0B2F1804F05D00A4B9A42D6
:1014800002D00A4B9A4204D1496825F080031943DF
:10149000916080F83D40002180F83C10084670BD06
:1014A000022070BD002C01400004004000080040F4
:1014B00010B5040003D094F83D0010B107E00120FE
:1014C00010BD002084F83C00204600F01FF80220E8
:1014D00084F83D00211D206800F028FF012084F8D9
:1014E000460084F83E0084F83F0084F8400084F809
:1014F000410084F8420084F8430084F8440084F8F2
:10150000450084F83D00002010BD000008B50068CB
:10151000B0F1804F08D10548C16941F00101C161B6
:10152000C06900F00100009008BD000000100240FA
:1015300070B5044690F83C000025012817D001261C
:1015400084F83C60022084F83D002068826822F024
:10155000770222F47F4282600868502838D00DDC80
:1015600020284FD005DC90B3102811D14AE002208A
:1015700070BD302846D040280AD13BE060282FD0EB
:1015800070280DD0B0F5805F03D0B0F5005F12D0A9
:10159000012584F83D60002084F83C00284670BD99
:1015A000CB68D1E90121206800F003FF2068816841
:1015B00041F0770109E0CB68D1E90121206800F012
:1015C000F8FE2068816841F480418160E1E719E01C
:1015D000CA684968206800F0A1FF5021206806E031
:1015E000CA684968206800F0AAFF6021206800F0FE
:1015F000EAFECEE7CA684968206800F08FFF402104
:101600002068F4E7226801461046F0E700B585B08F
:10161000002100910191029103910068B0F1804F87
:1016200011D10A48816941F00401816180696946EC
:1016300000F004000490012000900220019003902B
:101640000348FEF7CFFF05B000BD000000100240C8
:101650000008014070B5044690F83C0000260D4695
:1016600001280FD0012084F83C006AB1042A1DD063
:10167000082A2FD00C2A3FD00126002084F83C00F5
:10168000304670BD022070BD206800F0A5FE2068C5
:10169000816941F0080181612068816921F00401BC
:1016A0008161206881692A69114311E0206800F096
:1016B000BBFE2068816941F4006181612068816915
:1016C00021F480618161206881692A6941EA0221EF
:1016D0008161D2E7206800F0D3FE2068C16941F043
:1016E0000801C1612068C16921F00401C16120685D
:1016F000C1692A69114311E0206800F0EDFE2068FD
:10170000C16941F40061C1612068C16921F480614F
:10171000C1612068C1692A6941EA0221C161ACE75F
:1017200010B5040003D094F83D0010B107E001208B
:1017300010BD002084F83C00204600F01EF8022076
:1017400084F83D00211D206800F0F0FD012084F8A0
:10175000460084F83E0084F83F0084F8400084F896
:10176000410084F8420084F8430084F8440084F87F
:10177000450084F83D00002010BD704710B50446B8
:10178000022249B104290ED0082913D094F841004F
:10179000012816D0012010BD94F83E000128F9D18F
:1017A00084F83E200FE094F83F000128F2D184F83D
:1017B0003F2008E094F840000128EBD184F8402055
:1017C00001E084F841200122206800F0E5FD0F4986
:1017D0002068884203D1426C42F40042426420688F
:1017E000884208D0B0F1804F05D00949884202D024
:1017F0000849884204D1816801F00701062903D015
:10180000016841F001010160002010BD002C014081
:10181000000400400008004070477047F8B50168B8
:1018200004460868CA684B6910F00F0F4FF00005B6
:1018300059D003F0010602F49077374365D0C10711
:1018400005D0D10503D5616C41F001016164410708
:1018500005D5D90703D0616C41F0020161648107AD
:1018600005D5D90703D0616C41F00401616401071B
:1018700007D502F02001314303D0616C41F008012B
:101880006164616C00293AD0800604D5900602D5C7
:10189000204601F03AF820684069616CC0F380107E
:1018A000090700D460B3204601F008F820684069B9
:1018B000400621D52068143050E8001F21F0400177
:1018C00040E80012002AF5D1E06BA8B16D494163F0
:1018D000E06BFEF729FE002811D0E06B416B01B0F0
:1018E000BDE8F040084783060FD593060DD5204686
:1018F000BDE8F84001F009B82046FFF78EFFF8BDBB
:101900002046FFF78AFF6564F8BD266B2023012E71
:101910007CD1C6067AD5D60678D508684868009086
:1019200048694FF00206400640D5E16B0868406800
:101930000004000CE8D0A28D8242E5D9E0858869D8
:1019400020282DD020680C3050E8001F21F4807131
:1019500040E80012002AF5D12068143050E8001F3A
:1019600021F0010140E80012002AF5D1206814306E
:1019700050E8001F21F0400140E80012002AF5D194
:1019800084F84230256320680C3050E8001F21F0B5
:10199000100140E80012002AF5D1E06BFEF7A1FD2E
:1019A0006663A08DE18D401A81B22AE0A08DE18DA1
:1019B000401A81B2E08D0028A6D00029A4D0226868
:1019C0000C3252E8000F20F4907042E80007002F1C
:1019D000F5D12068143050E8002F22F0010240E8D1
:1019E0000027002FF5D184F84230256320680C30A1
:1019F00050E8002F22F0100240E80023002BF5D120
:101A000066632046FFF708FFF8BDFFE705062BD504
:101A1000150629D594F841002128F5D1A068B0F524
:101A2000805F01D12069B0B1206A411C2162216828
:101A300000784860E08C401E0004000CE084E3D194
:101A40002068C16821F08001C1602068C16841F050
:101A50004001C160D8E7206A0088C0F308004860F0
:101A6000206A801C2062E5E74006CDD55006CBD524
:101A7000CA68204622F04002CA6084F8413000F073
:101A800004F9C1E7AD28000870B5040004D094F84B
:101A90004100002510B106E0012070BD84F84050DF
:101AA000204600F023F8242084F841002068C16813
:101AB00021F40051C160204600F088FF20680169D0
:101AC00021F4904101612068416921F02A014161BE
:101AD0002068C16841F40051C1606564202084F829
:101AE000410084F842006563002070BD30B585B0C8
:101AF00000240094019402940394006818498842D9
:101B00002CD11848816941F480418161816901F4D7
:101B100080410491816941F0040181618069124D25
:101B200000F0040004904FF4007000900220019037
:101B30000320039069462846FEF754FD2815CDE999
:101B40000004694628460294FEF74CFD002201215C
:101B50002520FFF73DF82520FFF72CF805B030BD14
:101B600000380140001002400008014090F8423067
:101B7000202B01D00220704721B11AB1002303634A
:101B800000F080BF01207047164910B5884228D167
:101B9000154C2078592806D1E11E012088700221B9
:101BA0001248FEF714FE0F49207848394F2804D018
:101BB000432804D0522806D00CE00F2000E0192062
:101BC0000968486306E00849642306220C31054889
:101BD00000F00EF8BDE81040012203490148FFF76C
:101BE000C5BF10BD3C0100200300002000080140DB
:101BF0002DE9F843044690F841001F4616460D466D
:101C0000202802D00220BDE8F8837DB176B1002003
:101C10006064212084F84100FEF7E6FDA68480463A
:101C2000E684A068B0F5805F02D003E00120EAE717
:101C3000206910B12E4600250EE000260CE0802120
:101C4000204600F03AFFA0B9AEB116F8010B2168AA
:101C50004860E08C401EE084E08C43464FF0000278
:101C600000970028EBD14FF04001204600F025FFFF
:101C700030B10320C7E735F8020BC0F30800E6E7F0
:101C8000202084F841000020BDE77047FEE701688E
:101C90004A69D24352050FD46FF480624A61002131
:101CA00040F8301F202242738173026942F004021F
:101CB000026101730120704700207047F8B50446A7
:101CC000C06A1E460D461746082807D0012805D0D1
:101CD00010F5803F02D0206B122804D120680168E3
:101CE00041F480710160134600224FF0011120463B
:101CF000009600F05DF840B120680068C00502D58C
:101D00004FF4007020640320F8BD2069B0F5804FC7
:101D10000ED00620216800EAD51040F0F0000861DE
:101D200033463A460B49204600F08AF878B902E07B
:101D300005F0FE0000E0E8B221680861054933467D
:101D40003A46891F204600F07BF80028DCD00120AD
:101D5000F8BD00000800010070B516460D460446A7
:101D60001EE02046FFF793FF08B1012070BD681CFC
:101D700016D0FEF739FD801BA84200D885B920682F
:101D80004069C04340070BD5002044F8300F2021A4
:101D90006173A073216941F0200121612073E4E7A0
:101DA00020684069C0434007DBD4002070BD0000BC
:101DB0002DE9F047984617460D460446C1F30746FD
:101DC000DDF820902AE000BFB8F1FF3F26D0FEF7F3
:101DD0000BFDA0EB0901414502D8B8F1000F1DD160
:101DE0002068012E16D0806925EA00000004000C4E
:101DF00012D00020B84211D1002044F8300F202129
:101E00006173A073216941F02001216120730120D9
:101E1000BDE8F0874069E7E70120EBE72068012E85
:101E20000AD0806925EA00000004000C06D00020DA
:101E3000B842C9D00020EBE74069F3E70120F7E79B
:101E40002DE9F047984616460D4604464FF0000926
:101E50004FF0200AC1F3074723E020684069C043E0
:101E6000400515D42068016841F4007101602168C3
:101E70006FF480604861C4F8309084F83DA084F825
:101E80003E90216C41F00401216484F83C9021E0F3
:101E9000701C06D0FEF7A8FCA0EB0800B04203D8E7
:101EA00016B1012F1FD021E02068012F15D08069C5
:101EB00025EA00000004000C18D000BF44F8309F51
:101EC00084F80DA084F80E90216941F02001216171
:101ED00084F80C900120BDE8F087406925EA0000F5
:101EE0000004000CEAD12068406901E020688069A4
:101EF00025EA00000004000CAFD1ECE770B51646EF
:101F00000D4604461EE02046FFF7C1FE08B1012041
:101F100070BD681C16D0FEF767FC801BA84200D875
:101F200085B920684069C04300060BD5002044F8FD
:101F3000300F20216173A073216941F020012161DC
:101F40002073E4E720684069C0430006DBD400202A
:101F500070BD000010B50B48FEF7BEF90022042149
:101F60000848FEF714FA08A10648FEF735FA0122E0
:101F700000210448FEF70BFABDE8104004A1014817
:101F8000FEF72ABA8401002057656C636F6D650007
:101F90004D6F692062616E2071756574207468658B
:101FA000000000002DE9F04385B00024294800948A
:101FB000019402940394816941F020018161816957
:101FC00001F020010491816941F00401816181697E
:101FD00001F004010491816941F008018161806987
:101FE000DFF8749000F008000490002212214846A7
:101FF000FEF7F5FBDFF864804FF400470022394616
:102000004046FEF7ECFB122001250226CDE9000533
:10201000CDE9024669464846FEF7E4FA42F2090075
:102020008DE8310069464046FEF7DCFA00970396DA
:10203000CDE9015469464046FEF7D4FA4FF4184002
:102040008DE8310069464846FEF7CCFA05B0BDE898
:10205000F08300000010024000080140000C014025
:102060000F4810B50D4901604FF4827141600021A5
:102070008160C1604FF400720161C0E90512102255
:10208000C0E90721416281620A21C162FFF73EF87F
:10209000002801D072B6FEE710BD000000300140FC
:1020A0009C00002010B58EB0002407940894099479
:1020B0000A940B941C2168460C94FEF7A9F81E485C
:1020C0004FF08041016041F61F41C0E90114C72172
:1020D000C0E903148461FFF7EBF908B172B6FEE7BB
:1020E0004FF48050079007A91348FFF721FA08B171
:1020F00072B6FEE71048FFF713FB08B172B6FEE7B1
:102100000B940BA90C480C94FFF79EF908B172B61A
:10211000FEE76020CDE900040294002269460648EB
:102120000494FFF797FA08B172B6FEE70248FFF78A
:102130006DFA0EB010BD0000F4000020FEE7FEE7CF
:10214000704738B50B46009204460022802100F00B
:1021500009F8002804D0606D40F02000606503207D
:1021600038BD00002DE9F8431E46914688460446D6
:10217000089DFEF739FB401B351AFEF735FB074675
:1021800025480068C0F3CB30684338E0701C37D076
:10219000FEF72AFBC01BA84203D215B1009860B31A
:1021A0002CE02068416821F0E00141606068B0F5F2
:1021B000827F0BD1A068B0F5004F02D0B0F5806FE0
:1021C00004D12068016821F040010160A06AB0F5E7
:1021D000005F09D12068016821F400510160206886
:1021E000016841F400510160012084F85100002091
:1021F00084F850000320BDE8F8830025401E0090BD
:102200002068816838EA010004D000214945BDD129
:102210000020F0E70121F9E72400002070470000CA
:1022200010B5064C0F202168486340F6B830FEF721
:10223000C7F921681920486310BD0000F400002090
:102240002DE9F0411D4C40201D4F207041013846C2
:10225000FEF7B8FA31253026F8B166704FF4805198
:102260003846FEF7AFFAD0B184F802604FF400416F
:102270003846FEF7A7FAA0B1E67008211148FEF72C
:10228000A1FA80B126710D4900200F3960714870A4
:102290000120225C312A08D00AE06570DEE7A570D3
:1022A000E4E7E570E9E72571EDE74A78521C4A70EA
:1022B000401C0528EDD3BDE8F08100000F00002090
:1022C00000080140000C0140FEF71CBC30B58FB087
:1022D00028216846FDF79CFF14210AA8FDF798FF06
:1022E00001210804CDE90010002402940225049184
:1022F000CDE907504FF4E01009906846FEF776FDEF
:1023000008B172B6FEE70F20CDE90A054FF48060F0
:10231000CDE90C4002210AA80E94FEF78BFC0028A0
:1023200001D072B6FEE70FB030BD7047F0B502685D
:10233000164B174C174D4FF08047984205D0B842C6
:1023400003D0A04201D0A84203D122F070064A680F
:102350003243984205D0B84203D0A04201D0A842EF
:1023600003D122F44074CA6822434C6922F08002EF
:10237000224302608A68C2620A688262984201D17E
:102380000969016301214161F0BD0000002C014099
:10239000000400400008004010B501F01F030121B7
:1023A000046A99408C430462016A9A4011430162B5
:1023B00010BD10B5846842EA032224F47F440A4326
:1023C0002243826010BD826822F070020A4342F00C
:1023D000070181607047000030B5036A026A22F08D
:1023E000010202624268846924F073050C682C4380
:1023F00023F002058B682B430A4DA8420BD123F032
:102400000805CB6822F440722B434D6923F0040386
:1024100015438A692A4342608461496841630362C3
:1024200030BD0000002C014030B5026A036A23F081
:1024300010030362436884690D6824F4E64444EAA7
:1024400005248D6822F0200242EA05120B4DA842B5
:102450000ED1CD6822F0800242EA05124D6923F4C4
:10246000406343EA85038D6922F0400243EA850315
:102470004360846149688163026230BD002C014081
:1024800030B5036A026A22F4807202624268C4694B
:1024900023F4007324F073050C682C438D6843EA21
:1024A00005230C4DA8420ED1CD6823F4006343EA06
:1024B00005234D6922F4405242EA05128D6923F446
:1024C000806342EA05124260C4614968C1630362E5
:1024D00030BD0000002C014030B5046A026A22F4CD
:1024E000805202624268C3690D6823F4E64343EAFE
:1024F00005238D6824F4005444EA0534064DA842AF
:1025000004D14D6922F4804242EA85124260C361DF
:1025100049680164046230BD002C014010B5036AB3
:10252000046A24F001040462846924F0F00444EA9B
:10253000021423F00A020A438461026210BD10B53E
:10254000036A046A24F010040462846923F0A0037F
:1025500024F4704444EA023243EA011182610162C8
:1025600010BD10B5142000F09FF8800705D103219D
:10257000BDE81040142000F0CEB810BD7CB5044674
:10258000002529460D2000F05DF9932020702020C1
:10259000607001A823460090022219460C2000F02A
:1025A000C6F8010009D1225C401C5540C0B2042885
:1025B000F9D3205CA84200D0022108467CBD2DE959
:1025C000F0410E46074615460421052000F026F886
:1025D00080210A2000F09FF8002405E0395D0920E1
:1025E00000F030F9641CE4B2B442F7D303210120B7
:1025F00000F028F9FF24052000F056F8641E14F0BE
:10260000FF0401D04007F6D5222000F04DF82870D5
:10261000212000F049F86870BDE8F08170B50C46E3
:10262000054600F041F820EA04012846BDE8704064
:1026300000F008B90EB550208DF8040000208DF888
:1026400005000DF10602022101A8FFF7B8FF02A85C
:1026500001AB0090042219460C2000F068F80EBD72
:1026600010B500F054F88D212A2000F0EBF83E213F
:102670002B2000F0E7F81E212D2000F0E3F80021C8
:102680002C2000F0DFF87021262000F0DBF840213C
:10269000152000F0D7F83D21112000F0D3F8BDE857
:1026A0001040FFF75EBF000070B50C4D04460022DD
:1026B00010212846FEF793F87E2000EA440040F0FF
:1026C000800000F0D9F8002000F0D6F8044601227E
:1026D00010212846FEF783F8204670BD000801400F
:1026E0007CB50C46054607210D2000F0ABF825709F
:1026F00001A823460090012219460C2000F017F88B
:1027000018B9BDF80410102900D002207CBD0F219B
:10271000012000F097B870B50C460546FFF7C4FFDE
:1027200040EA04012846BDE8704000F08BB82DE96E
:10273000FF5F00270226DDF838A015468B4681464C
:10274000B8460C2805D0B9F10E0F05D1122710207C
:1027500001E077273020804647F08001022000F01A
:1027600071F880210420FFF759FF80210A20FFF72C
:10277000D2FF0021012000F065F8002406E01BF8DC
:102780000410092000F05EF8641CA4B2AC42F6D339
:102790004946012000F056F8B9F10C0F03D1802111
:1027A0000D20FFF7B8FF4FF4FA650420FFF77CFF18
:1027B0006D1E2D0404462D0C04D0E00702D114EA4E
:1027C000080FF2D080210D20FFF728FF35B1062039
:1027D000FFF76AFF10F01B0F04D0022604B030464A
:1027E000BDE8F09F00263C40E00700D00126B9F18B
:1027F0000C0FF3D10A20FFF757FF04460C20FFF718
:1028000053FF10F007004FEAC40104D00839084410
:10281000AAF8000001E0AAF8001024B1102C04D995
:102820001024002503E00124FBE7002506E0092031
:10283000FFF73AFF039948556D1CADB2A542F6D398
:10284000CCE7000070B50B4D0E4604460022102167
:102850002846FDF7C4FF7E2000EA440000F00CF893
:10286000304600F009F82846BDE8704001221021EA
:10287000FDF7B5BF000801403EB50B4C8DF80400D4
:10288000206881688907FCD50A200090012302AAEC
:1028900001A90548FEF7CCFC206881680906FCD434
:1028A0009DF808003EBD00009C00002010B5406A65
:1028B0000021C185C184FEF7B0FF10BD01680C3155
:1028C00051E8002F22F4907241E80023002BF5D14B
:1028D0000168143151E8002F22F0010241E8002381
:1028E000002BF5D1016B012909D101680C3151E8A8
:1028F000002F22F0100241E80023002BF5D1202107
:1029000080F8421000210163704708B590F842102A
:10291000222901D0022008BD82684FF480539A42D8
:1029200001D1016921B1816A9A421BD04AB10AE002
:102930000268816A5268C2F308020A80816A891CAF
:1029400008E0026972B10268526802F07F020A7000
:10295000816A491C8162C18D491E0904090CC18527
:1029600003D01BE002685268F1E70168CA6822F0F0
:102970002002CA600168CA6822F48072CA600168D5
:102980004A6922F001024A61202180F842100021A8
:102990004163026B012A03D0FFF7F6F8002008BD5F
:1029A000016301680C3151E8002F22F0100241E868
:1029B0000023002BF5D101680A68D20602D50A6807
:1029C00049680091818DFEF727FFE7E770B504465F
:1029D00000680169E26821F44051114301612169F5
:1029E000A0680843616908432168CA6841F20C6322
:1029F0009A430243CA6020684169A26921F4407188
:102A0000114341611E492068884202D1FEF7B8F99E
:102A100001E0FEF7A5F900EBC00101EB00126068D0
:102A200064218000B2FBF0F3B3FBF1F36FF0180602
:102A30007343B2FBF0F5B2FBF0F605EB83053223EE
:102A400003EB0515B5FBF1F5B6FBF1F605F0F00566
:102A500005EB0615B2FBF0F6B2FBF0F0B0FBF1F0BF
:102A60006FF01802504306EB800003EB0010B0FB40
:102A7000F1F0216800F00F002844886070BD00006C
:102A80000038014081628285C28500214164222193
:102A900080F84210016921B10168CA6842F480726D
:102AA000CA6001684A6942F001024A610068C1686F
:102AB00041F02001C160002070472DE9F0419846A7
:102AC00017460E460446069D27E0681C25D02DB10A
:102AD000FDF78AFEA0EB0800A8421ED920680C3042
:102AE00050E8001F21F4D07140E80012002AF5D10F
:102AF0002068143050E8001F21F0010140E8001266
:102B0000002AF5D1202084F8410084F842000020FA
:102B100084F840000320BDE8F0812068006836EAB0
:102B2000000004D00020B842CFD00020F3E70120FD
:102B3000F9E700000148FEF771BE00003C010020EB
:102B4000FEE700000D4810B540780C4904284FF00E
:102B500064034FF0060201F10F010AD00848FFF7A5
:102B600047F84FF4FA70FDF72BFD0549642309225D
:102B70005431BDE810400248FFF73AB80000002089
:102B80003C0100200907090E002804DB00F1E020C9
:102B900080F80014704700F00F0000F1E02080F88A
:102BA000141D704730B50023C45C250904F00F04E0
:102BB0000A2D01D2303500E0373502F813500A2CC7
:102BC00001D2303400E0373402EB43055B1CDBB24A
:102BD0006C70042BE8D3002002F8110030BD000017
:102BE00008B5FDF797FFFFF771FBFFF7DBF9FFF77C
:102BF00037FA28482649002401602749C0E9011412
:102C00004FF48041C0E9034144618461C4610462BE
:102C1000FDF7F0FD08B172B6FEE71E481F49F4301B
:102C200001604FF41651C0E901140C21C460C0E9E1
:102C300004418461C461FEF727FF08B172B6FEE764
:102C4000FFF730FA13480021AC30FEF797FDFFF78D
:102C500007FD04200F49009014234E2201F59E70B9
:102C6000FDF744FBFFF776F90A4801220C49F430DE
:102C7000FEF77CFF0A4DED1EFFF7E2FAFDF7EEFBD3
:102C8000A8780128F8D1FFF7CBFAAC70F4E7000080
:102C90000054004048000020A08601000038014098
:102CA00003000020010202030405060708090A0BBD
:102CB0000C0D0E0F101000000000000000000102BB
:102CC00003040607080900000000010203040000D5
:102CD000F02C000800000020280000002801000857
:102CE000182D000828000020D80700004401000823
:102CF00000000000000000000000000000000000D4
:102D000000000000000000000100000010000000B2
:082D1000000000000024F400A3
:04000005080000ED02
:00000001FF
